{
  "_format": "hh-sol-artifact-1",
  "contractName": "VelocityPresale",
  "sourceName": "contracts/VelocityPresale.sol",
  "abi": [
    {
      "inputs": [
        {
          "internalType": "address",
          "name": "_token",
          "type": "address"
        },
        {
          "internalType": "address",
          "name": "_paymentToken",
          "type": "address"
        },
        {
          "internalType": "uint256",
          "name": "_presalePrice",
          "type": "uint256"
        },
        {
          "internalType": "uint256",
          "name": "_startTime",
          "type": "uint256"
        },
        {
          "internalType": "uint256",
          "name": "_endTime",
          "type": "uint256"
        },
        {
          "internalType": "uint256",
          "name": "_hardCap",
          "type": "uint256"
        },
        {
          "internalType": "uint256",
          "name": "_softCap",
          "type": "uint256"
        },
        {
          "internalType": "uint256",
          "name": "_minPurchase",
          "type": "uint256"
        },
        {
          "internalType": "uint256",
          "name": "_maxPurchase",
          "type": "uint256"
        }
      ],
      "stateMutability": "nonpayable",
      "type": "constructor"
    },
    {
      "inputs": [
        {
          "internalType": "address",
          "name": "owner",
          "type": "address"
        }
      ],
      "name": "OwnableInvalidOwner",
      "type": "error"
    },
    {
      "inputs": [
        {
          "internalType": "address",
          "name": "account",
          "type": "address"
        }
      ],
      "name": "OwnableUnauthorizedAccount",
      "type": "error"
    },
    {
      "inputs": [],
      "name": "ReentrancyGuardReentrantCall",
      "type": "error"
    },
    {
      "inputs": [
        {
          "internalType": "address",
          "name": "token",
          "type": "address"
        }
      ],
      "name": "SafeERC20FailedOperation",
      "type": "error"
    },
    {
      "anonymous": false,
      "inputs": [
        {
          "indexed": true,
          "internalType": "address",
          "name": "recipient",
          "type": "address"
        },
        {
          "indexed": false,
          "internalType": "uint256",
          "name": "amount",
          "type": "uint256"
        }
      ],
      "name": "FundsWithdrawn",
      "type": "event"
    },
    {
      "anonymous": false,
      "inputs": [
        {
          "indexed": true,
          "internalType": "address",
          "name": "previousOwner",
          "type": "address"
        },
        {
          "indexed": true,
          "internalType": "address",
          "name": "newOwner",
          "type": "address"
        }
      ],
      "name": "OwnershipTransferred",
      "type": "event"
    },
    {
      "anonymous": false,
      "inputs": [],
      "name": "PresaleClaimableEnabled",
      "type": "event"
    },
    {
      "anonymous": false,
      "inputs": [
        {
          "indexed": false,
          "internalType": "uint256",
          "name": "totalRaised",
          "type": "uint256"
        },
        {
          "indexed": false,
          "internalType": "uint256",
          "name": "tokensSold",
          "type": "uint256"
        }
      ],
      "name": "PresaleEnded",
      "type": "event"
    },
    {
      "anonymous": false,
      "inputs": [
        {
          "indexed": true,
          "internalType": "address",
          "name": "purchaser",
          "type": "address"
        },
        {
          "indexed": false,
          "internalType": "uint256",
          "name": "tokenAmount",
          "type": "uint256"
        }
      ],
      "name": "TokensClaimed",
      "type": "event"
    },
    {
      "anonymous": false,
      "inputs": [
        {
          "indexed": true,
          "internalType": "address",
          "name": "purchaser",
          "type": "address"
        },
        {
          "indexed": false,
          "internalType": "uint256",
          "name": "paymentAmount",
          "type": "uint256"
        },
        {
          "indexed": false,
          "internalType": "uint256",
          "name": "tokenAmount",
          "type": "uint256"
        }
      ],
      "name": "TokensPurchased",
      "type": "event"
    },
    {
      "anonymous": false,
      "inputs": [
        {
          "indexed": true,
          "internalType": "address",
          "name": "account",
          "type": "address"
        },
        {
          "indexed": false,
          "internalType": "bool",
          "name": "status",
          "type": "bool"
        }
      ],
      "name": "WhitelistUpdated",
      "type": "event"
    },
    {
      "inputs": [
        {
          "internalType": "address[]",
          "name": "_accounts",
          "type": "address[]"
        }
      ],
      "name": "addMultipleToWhitelist",
      "outputs": [],
      "stateMutability": "nonpayable",
      "type": "function"
    },
    {
      "inputs": [
        {
          "internalType": "address",
          "name": "_account",
          "type": "address"
        }
      ],
      "name": "addToWhitelist",
      "outputs": [],
      "stateMutability": "nonpayable",
      "type": "function"
    },
    {
      "inputs": [],
      "name": "buyTokens",
      "outputs": [],
      "stateMutability": "payable",
      "type": "function"
    },
    {
      "inputs": [
        {
          "internalType": "uint256",
          "name": "_amount",
          "type": "uint256"
        }
      ],
      "name": "buyTokensWithToken",
      "outputs": [],
      "stateMutability": "nonpayable",
      "type": "function"
    },
    {
      "inputs": [],
      "name": "claimTokens",
      "outputs": [],
      "stateMutability": "nonpayable",
      "type": "function"
    },
    {
      "inputs": [],
      "name": "enableClaiming",
      "outputs": [],
      "stateMutability": "nonpayable",
      "type": "function"
    },
    {
      "inputs": [],
      "name": "endPresale",
      "outputs": [],
      "stateMutability": "nonpayable",
      "type": "function"
    },
    {
      "inputs": [],
      "name": "endTime",
      "outputs": [
        {
          "internalType": "uint256",
          "name": "",
          "type": "uint256"
        }
      ],
      "stateMutability": "view",
      "type": "function"
    },
    {
      "inputs": [],
      "name": "getPresaleStatus",
      "outputs": [
        {
          "internalType": "uint256",
          "name": "_tokensSold",
          "type": "uint256"
        },
        {
          "internalType": "uint256",
          "name": "_totalRaised",
          "type": "uint256"
        },
        {
          "internalType": "uint256",
          "name": "_hardCap",
          "type": "uint256"
        },
        {
          "internalType": "uint256",
          "name": "_softCap",
          "type": "uint256"
        },
        {
          "internalType": "uint256",
          "name": "_startTime",
          "type": "uint256"
        },
        {
          "internalType": "uint256",
          "name": "_endTime",
          "type": "uint256"
        },
        {
          "internalType": "bool",
          "name": "_isActive",
          "type": "bool"
        },
        {
          "internalType": "bool",
          "name": "_ended",
          "type": "bool"
        },
        {
          "internalType": "bool",
          "name": "_claimable",
          "type": "bool"
        },
        {
          "internalType": "uint256",
          "name": "_purchaserCount",
          "type": "uint256"
        }
      ],
      "stateMutability": "view",
      "type": "function"
    },
    {
      "inputs": [],
      "name": "getPurchasers",
      "outputs": [
        {
          "internalType": "address[]",
          "name": "",
          "type": "address[]"
        }
      ],
      "stateMutability": "view",
      "type": "function"
    },
    {
      "inputs": [
        {
          "internalType": "address",
          "name": "_user",
          "type": "address"
        }
      ],
      "name": "getUserPurchase",
      "outputs": [
        {
          "internalType": "uint256",
          "name": "paymentAmount",
          "type": "uint256"
        },
        {
          "internalType": "uint256",
          "name": "tokenAmount",
          "type": "uint256"
        },
        {
          "internalType": "uint256",
          "name": "timestamp",
          "type": "uint256"
        },
        {
          "internalType": "bool",
          "name": "claimed",
          "type": "bool"
        }
      ],
      "stateMutability": "view",
      "type": "function"
    },
    {
      "inputs": [],
      "name": "hardCap",
      "outputs": [
        {
          "internalType": "uint256",
          "name": "",
          "type": "uint256"
        }
      ],
      "stateMutability": "view",
      "type": "function"
    },
    {
      "inputs": [
        {
          "internalType": "address",
          "name": "",
          "type": "address"
        }
      ],
      "name": "isWhitelisted",
      "outputs": [
        {
          "internalType": "bool",
          "name": "",
          "type": "bool"
        }
      ],
      "stateMutability": "view",
      "type": "function"
    },
    {
      "inputs": [],
      "name": "maxPurchase",
      "outputs": [
        {
          "internalType": "uint256",
          "name": "",
          "type": "uint256"
        }
      ],
      "stateMutability": "view",
      "type": "function"
    },
    {
      "inputs": [],
      "name": "minPurchase",
      "outputs": [
        {
          "internalType": "uint256",
          "name": "",
          "type": "uint256"
        }
      ],
      "stateMutability": "view",
      "type": "function"
    },
    {
      "inputs": [],
      "name": "owner",
      "outputs": [
        {
          "internalType": "address",
          "name": "",
          "type": "address"
        }
      ],
      "stateMutability": "view",
      "type": "function"
    },
    {
      "inputs": [],
      "name": "paymentToken",
      "outputs": [
        {
          "internalType": "address",
          "name": "",
          "type": "address"
        }
      ],
      "stateMutability": "view",
      "type": "function"
    },
    {
      "inputs": [],
      "name": "presaleClaimable",
      "outputs": [
        {
          "internalType": "bool",
          "name": "",
          "type": "bool"
        }
      ],
      "stateMutability": "view",
      "type": "function"
    },
    {
      "inputs": [],
      "name": "presaleEnded",
      "outputs": [
        {
          "internalType": "bool",
          "name": "",
          "type": "bool"
        }
      ],
      "stateMutability": "view",
      "type": "function"
    },
    {
      "inputs": [],
      "name": "presalePrice",
      "outputs": [
        {
          "internalType": "uint256",
          "name": "",
          "type": "uint256"
        }
      ],
      "stateMutability": "view",
      "type": "function"
    },
    {
      "inputs": [
        {
          "internalType": "uint256",
          "name": "",
          "type": "uint256"
        }
      ],
      "name": "purchasers",
      "outputs": [
        {
          "internalType": "address",
          "name": "",
          "type": "address"
        }
      ],
      "stateMutability": "view",
      "type": "function"
    },
    {
      "inputs": [
        {
          "internalType": "address",
          "name": "",
          "type": "address"
        }
      ],
      "name": "purchases",
      "outputs": [
        {
          "internalType": "uint256",
          "name": "paymentAmount",
          "type": "uint256"
        },
        {
          "internalType": "uint256",
          "name": "tokenAmount",
          "type": "uint256"
        },
        {
          "internalType": "uint256",
          "name": "timestamp",
          "type": "uint256"
        },
        {
          "internalType": "bool",
          "name": "claimed",
          "type": "bool"
        }
      ],
      "stateMutability": "view",
      "type": "function"
    },
    {
      "inputs": [
        {
          "internalType": "address",
          "name": "_account",
          "type": "address"
        }
      ],
      "name": "removeFromWhitelist",
      "outputs": [],
      "stateMutability": "nonpayable",
      "type": "function"
    },
    {
      "inputs": [],
      "name": "renounceOwnership",
      "outputs": [],
      "stateMutability": "nonpayable",
      "type": "function"
    },
    {
      "inputs": [
        {
          "internalType": "bool",
          "name": "_required",
          "type": "bool"
        }
      ],
      "name": "setWhitelistRequired",
      "outputs": [],
      "stateMutability": "nonpayable",
      "type": "function"
    },
    {
      "inputs": [],
      "name": "softCap",
      "outputs": [
        {
          "internalType": "uint256",
          "name": "",
          "type": "uint256"
        }
      ],
      "stateMutability": "view",
      "type": "function"
    },
    {
      "inputs": [],
      "name": "startTime",
      "outputs": [
        {
          "internalType": "uint256",
          "name": "",
          "type": "uint256"
        }
      ],
      "stateMutability": "view",
      "type": "function"
    },
    {
      "inputs": [],
      "name": "token",
      "outputs": [
        {
          "internalType": "contract IERC20",
          "name": "",
          "type": "address"
        }
      ],
      "stateMutability": "view",
      "type": "function"
    },
    {
      "inputs": [],
      "name": "tokensSold",
      "outputs": [
        {
          "internalType": "uint256",
          "name": "",
          "type": "uint256"
        }
      ],
      "stateMutability": "view",
      "type": "function"
    },
    {
      "inputs": [],
      "name": "totalRaised",
      "outputs": [
        {
          "internalType": "uint256",
          "name": "",
          "type": "uint256"
        }
      ],
      "stateMutability": "view",
      "type": "function"
    },
    {
      "inputs": [
        {
          "internalType": "address",
          "name": "newOwner",
          "type": "address"
        }
      ],
      "name": "transferOwnership",
      "outputs": [],
      "stateMutability": "nonpayable",
      "type": "function"
    },
    {
      "inputs": [],
      "name": "whitelistRequired",
      "outputs": [
        {
          "internalType": "bool",
          "name": "",
          "type": "bool"
        }
      ],
      "stateMutability": "view",
      "type": "function"
    },
    {
      "inputs": [
        {
          "internalType": "address",
          "name": "_recipient",
          "type": "address"
        }
      ],
      "name": "withdrawFunds",
      "outputs": [],
      "stateMutability": "nonpayable",
      "type": "function"
    },
    {
      "inputs": [
        {
          "internalType": "address",
          "name": "_recipient",
          "type": "address"
        }
      ],
      "name": "withdrawUnsoldTokens",
      "outputs": [],
      "stateMutability": "nonpayable",
      "type": "function"
    },
    {
      "stateMutability": "payable",
      "type": "receive"
    }
  ],
  "bytecode": "0x6101a06040523480156200001257600080fd5b50604051620020c0380380620020c0833981016040819052620000359162000346565b33806200005d57604051631e4fbdf760e01b8152600060048201526024015b60405180910390fd5b6200006881620002d9565b50600180556001600160a01b038916620000c55760405162461bcd60e51b815260206004820152601560248201527f496e76616c696420746f6b656e20616464726573730000000000000000000000604482015260640162000054565b42861015620001175760405162461bcd60e51b815260206004820152601660248201527f53746172742074696d6520696e20746865207061737400000000000000000000604482015260640162000054565b858511620001685760405162461bcd60e51b815260206004820152601a60248201527f456e642074696d65206265666f72652073746172742074696d65000000000000604482015260640162000054565b828411620001c85760405162461bcd60e51b815260206004820152602660248201527f4861726420636170206d7573742062652067726561746572207468616e20736f60448201526506674206361760d41b606482015260840162000054565b60008211620002265760405162461bcd60e51b815260206004820152602360248201527f4d696e207075726368617365206d75737420626520677265617465722074686160448201526206e20360ec1b606482015260840162000054565b8181116200028e5760405162461bcd60e51b815260206004820152602e60248201527f4d6178207075726368617365206d75737420626520677265617465722074686160448201526d6e206d696e20707572636861736560901b606482015260840162000054565b6001600160a01b039889166080529690971660a05260c09490945260e09290925261010052610120526101405261016091909152610180526008805460ff19166001179055620003c2565b600080546001600160a01b038381166001600160a01b0319831681178455604051919092169283917f8be0079c531659141344cd1fd0a4f28419497f9722a3daafe3b4186f6b6457e09190a35050565b80516001600160a01b03811681146200034157600080fd5b919050565b60008060008060008060008060006101208a8c0312156200036657600080fd5b620003718a62000329565b98506200038160208b0162000329565b975060408a0151965060608a0151955060808a0151945060a08a0151935060c08a0151925060e08a015191506101008a015190509295985092959850929598565b60805160a05160c05160e0516101005161012051610140516101605161018051611bf3620004cd600039600081816105a2015261094d01526000818161034201526108e401526000818161056e01526116ac01526000818161077501528181610a49015261168b01526000818161030e01528181610838015281816116ee015261173a015260008181610475015281816107cd015281816114b8015281816116cd015261170f0152600081816102240152610a200152600081816102da01528181610e3f01528181610ec001528181610f52015281816110bc0152818161118601526115d80152600081816107a901528181610dc701528181611270015261133a0152611bf36000f3fe6080604052600436106101fc5760003560e01c8063842a77d31161010d578063c5c4744c116100a0578063e580b2b01161006f578063e580b2b01461070f578063f2fde38b14610729578063fb08f3a114610749578063fb86a40414610763578063fc0c546a1461079757600080fd5b8063c5c4744c1461066c578063d0febe4c14610682578063d7517caa1461068a578063e43252d7146106ef57600080fd5b8063977b055b116100dc578063977b055b14610590578063a43be57b146105c4578063b5c12f4d146105d9578063bda235da146105f957600080fd5b8063842a77d3146104b75780638ab1d6811461051e5780638da5cb5b1461053e578063906a26e01461055c57600080fd5b806348c54b9d11610190578063715018a61161015f578063715018a61461040f578063718c23571461042457806372f57f1f1461044357806378e97925146104635780638401f8d11461049757600080fd5b806348c54b9d146103a4578063518ab2a8146103b95780635950e316146103cf57806368742da6146103ef57600080fd5b80633013ce29116101cc5780633013ce29146102c85780633197cbb6146102fc57806333b5b62e146103305780633af32abf1461036457600080fd5b80620e7fa8146102125780630409eb851461025957806312923b651461027b5780632081a88c146102b357600080fd5b3661020d5761020b34336107cb565b005b600080fd5b34801561021e57600080fd5b506102467f000000000000000000000000000000000000000000000000000000000000000081565b6040519081526020015b60405180910390f35b34801561026557600080fd5b5061026e610bdb565b6040516102509190611a02565b34801561028757600080fd5b5061029b610296366004611a4f565b610c3d565b6040516001600160a01b039091168152602001610250565b3480156102bf57600080fd5b5061020b610c67565b3480156102d457600080fd5b5061029b7f000000000000000000000000000000000000000000000000000000000000000081565b34801561030857600080fd5b506102467f000000000000000000000000000000000000000000000000000000000000000081565b34801561033c57600080fd5b506102467f000000000000000000000000000000000000000000000000000000000000000081565b34801561037057600080fd5b5061039461037f366004611a68565b60076020526000908152604090205460ff1681565b6040519015158152602001610250565b3480156103b057600080fd5b5061020b610ca9565b3480156103c557600080fd5b5061024660025481565b3480156103db57600080fd5b5061020b6103ea366004611a4f565b610e35565b3480156103fb57600080fd5b5061020b61040a366004611a68565b610efe565b34801561041b57600080fd5b5061020b6111f4565b34801561043057600080fd5b5060045461039490610100900460ff1681565b34801561044f57600080fd5b5061020b61045e366004611a68565b611206565b34801561046f57600080fd5b506102467f000000000000000000000000000000000000000000000000000000000000000081565b3480156104a357600080fd5b5061020b6104b2366004611a98565b611365565b3480156104c357600080fd5b506104fc6104d2366004611a68565b60056020526000908152604090208054600182015460028301546003909301549192909160ff1684565b6040805194855260208501939093529183015215156060820152608001610250565b34801561052a57600080fd5b5061020b610539366004611a68565b611450565b34801561054a57600080fd5b506000546001600160a01b031661029b565b34801561056857600080fd5b506102467f000000000000000000000000000000000000000000000000000000000000000081565b34801561059c57600080fd5b506102467f000000000000000000000000000000000000000000000000000000000000000081565b3480156105d057600080fd5b5061020b6114ae565b3480156105e557600080fd5b5061020b6105f4366004611b0d565b6115b3565b34801561060557600080fd5b506104fc610614366004611a68565b6001600160a01b0316600090815260056020908152604091829020825160808101845281548082526001830154938201849052600283015494820185905260039092015460ff16151560609091018190529093919291565b34801561067857600080fd5b5061024660035481565b61020b6115ce565b34801561069657600080fd5b5061069f611674565b604080519a8b5260208b0199909952978901969096526060880194909452608087019290925260a0860152151560c0850152151560e0840152151561010083015261012082015261014001610250565b3480156106fb57600080fd5b5061020b61070a366004611a68565b6117b2565b34801561071b57600080fd5b506004546103949060ff1681565b34801561073557600080fd5b5061020b610744366004611a68565b611811565b34801561075557600080fd5b506008546103949060ff1681565b34801561076f57600080fd5b506102467f000000000000000000000000000000000000000000000000000000000000000081565b3480156107a357600080fd5b5061029b7f000000000000000000000000000000000000000000000000000000000000000081565b7f00000000000000000000000000000000000000000000000000000000000000004210156108365760405162461bcd60e51b8152602060048201526013602482015272141c995cd85b19481b9bdd081cdd185c9d1959606a1b60448201526064015b60405180910390fd5b7f00000000000000000000000000000000000000000000000000000000000000004211156108965760405162461bcd60e51b815260206004820152600d60248201526c141c995cd85b1948195b991959609a1b604482015260640161082d565b60045460ff16156108e25760405162461bcd60e51b8152602060048201526016602482015275141c995cd85b19481b585b9d585b1b1e48195b99195960521b604482015260640161082d565b7f000000000000000000000000000000000000000000000000000000000000000082101561094b5760405162461bcd60e51b815260206004820152601660248201527542656c6f77206d696e696d756d20707572636861736560501b604482015260640161082d565b7f00000000000000000000000000000000000000000000000000000000000000008211156109b45760405162461bcd60e51b815260206004820152601660248201527541626f7665206d6178696d756d20707572636861736560501b604482015260640161082d565b60085460ff1615610a19576001600160a01b03811660009081526007602052604090205460ff16610a195760405162461bcd60e51b815260206004820152600f60248201526e139bdd081dda1a5d195b1a5cdd1959608a1b604482015260640161082d565b6000610a457f000000000000000000000000000000000000000000000000000000000000000084611b45565b90507f000000000000000000000000000000000000000000000000000000000000000083600354610a769190611b62565b1115610ab75760405162461bcd60e51b815260206004820152601060248201526f12185c990818d85c081c995858da195960821b604482015260640161082d565b8060026000828254610ac99190611b62565b925050819055508260036000828254610ae29190611b62565b90915550506001600160a01b0382166000908152600560205260408120805490918591839190610b13908490611b62565b9250508190555081816001016000828254610b2e9190611b62565b90915550504260028201556001810154829003610b9157600680546001810182556000919091527ff652222313e28459528d920b65115c16c04f3efc82aaedc97be59f3f377c0d3f0180546001600160a01b0319166001600160a01b0385161790555b60408051858152602081018490526001600160a01b038516917f8fafebcaf9d154343dad25669bfa277f4fbacd7ac6b0c4fed522580e040a0f33910160405180910390a250505050565b60606006805480602002602001604051908101604052809291908181526020018280548015610c3357602002820191906000526020600020905b81546001600160a01b03168152600190910190602001808311610c15575b5050505050905090565b60068181548110610c4d57600080fd5b6000918252602090912001546001600160a01b0316905081565b610c6f61184c565b6004805461ff0019166101001790556040517f82209927c1ec6fdce963f7111ec12a97eeddcd846f6677ca37a46593d33a040090600090a1565b610cb1611879565b600454610100900460ff16610d085760405162461bcd60e51b815260206004820152601860248201527f546f6b656e73206e6f7420636c61696d61626c65207965740000000000000000604482015260640161082d565b3360009081526005602052604090206001810154610d5d5760405162461bcd60e51b81526020600482015260126024820152714e6f20746f6b656e7320746f20636c61696d60701b604482015260640161082d565b600381015460ff1615610da45760405162461bcd60e51b815260206004820152600f60248201526e105b1c9958591e4818db185a5b5959608a1b604482015260640161082d565b60038101805460ff19166001908117909155810154610def906001600160a01b037f0000000000000000000000000000000000000000000000000000000000000000169033906118a3565b600181015460405190815233907f896e034966eaaf1adc54acc0f257056febbd300c9e47182cf761982cf1f5e4309060200160405180910390a250610e3360018055565b565b610e3d611879565b7f00000000000000000000000000000000000000000000000000000000000000006001600160a01b0316610eb35760405162461bcd60e51b815260206004820181905260248201527f55736520627579546f6b656e73282920666f7220455448207061796d656e7473604482015260640161082d565b610ee86001600160a01b037f000000000000000000000000000000000000000000000000000000000000000016333084611902565b610ef281336107cb565b610efb60018055565b50565b610f0661184c565b6001600160a01b038116610f505760405162461bcd60e51b8152602060048201526011602482015270125b9d985b1a59081c9958da5c1a595b9d607a1b604482015260640161082d565b7f00000000000000000000000000000000000000000000000000000000000000006001600160a01b03166110a4574780610fc15760405162461bcd60e51b81526020600482015260126024820152714e6f2045544820746f20776974686472617760701b604482015260640161082d565b6000826001600160a01b03168260405160006040518083038185875af1925050503d806000811461100e576040519150601f19603f3d011682016040523d82523d6000602084013e611013565b606091505b505090508061105c5760405162461bcd60e51b8152602060048201526015602482015274115512081dda5d1a191c985dd85b0819985a5b1959605a1b604482015260640161082d565b826001600160a01b03167feaff4b37086828766ad3268786972c0cd24259d4c87a80f9d3963a3c3d999b0d8360405161109791815260200190565b60405180910390a2505050565b6040516370a0823160e01b81523060048201526000907f00000000000000000000000000000000000000000000000000000000000000006001600160a01b0316906370a0823190602401602060405180830381865afa15801561110b573d6000803e3d6000fd5b505050506040513d601f19601f8201168201806040525081019061112f9190611b75565b9050600081116111795760405162461bcd60e51b81526020600482015260156024820152744e6f20746f6b656e7320746f20776974686472617760581b604482015260640161082d565b6111ad6001600160a01b037f00000000000000000000000000000000000000000000000000000000000000001683836118a3565b816001600160a01b03167feaff4b37086828766ad3268786972c0cd24259d4c87a80f9d3963a3c3d999b0d826040516111e891815260200190565b60405180910390a25050565b6111fc61184c565b610e336000611941565b61120e61184c565b6001600160a01b0381166112585760405162461bcd60e51b8152602060048201526011602482015270125b9d985b1a59081c9958da5c1a595b9d607a1b604482015260640161082d565b6040516370a0823160e01b81523060048201526000907f00000000000000000000000000000000000000000000000000000000000000006001600160a01b0316906370a0823190602401602060405180830381865afa1580156112bf573d6000803e3d6000fd5b505050506040513d601f19601f820116820180604052508101906112e39190611b75565b90506000811161132d5760405162461bcd60e51b81526020600482015260156024820152744e6f20746f6b656e7320746f20776974686472617760581b604482015260640161082d565b6113616001600160a01b037f00000000000000000000000000000000000000000000000000000000000000001683836118a3565b5050565b61136d61184c565b60005b8181101561144b5760016007600085858581811061139057611390611b8e565b90506020020160208101906113a59190611a68565b6001600160a01b031681526020810191909152604001600020805460ff19169115159190911790558282828181106113df576113df611b8e565b90506020020160208101906113f49190611a68565b6001600160a01b03167ff93f9a76c1bf3444d22400a00cb9fe990e6abe9dbb333fda48859cfee864543d6001604051611431911515815260200190565b60405180910390a28061144381611ba4565b915050611370565b505050565b61145861184c565b6001600160a01b0381166000818152600760209081526040808320805460ff19169055519182527ff93f9a76c1bf3444d22400a00cb9fe990e6abe9dbb333fda48859cfee864543d91015b60405180910390a250565b6114b661184c565b7f000000000000000000000000000000000000000000000000000000000000000042101561151c5760405162461bcd60e51b8152602060048201526013602482015272141c995cd85b19481b9bdd081cdd185c9d1959606a1b604482015260640161082d565b60045460ff161561155f5760405162461bcd60e51b815260206004820152600d60248201526c105b1c9958591e48195b991959609a1b604482015260640161082d565b6004805460ff191660011790556003546002546040517fb4e6cb40663c1ac63bcd620dbe3d98c44526baa45e310f545f425ebaab36a293926115a992908252602082015260400190565b60405180910390a1565b6115bb61184c565b6008805460ff1916911515919091179055565b6115d6611879565b7f00000000000000000000000000000000000000000000000000000000000000006001600160a01b0316156116615760405162461bcd60e51b815260206004820152602b60248201527f55736520627579546f6b656e7357697468546f6b656e282920666f7220746f6b60448201526a656e207061796d656e747360a81b606482015260840161082d565b61166b34336107cb565b610e3360018055565b6000806000806000806000806000806002546003547f00000000000000000000000000000000000000000000000000000000000000007f00000000000000000000000000000000000000000000000000000000000000007f00000000000000000000000000000000000000000000000000000000000000007f00000000000000000000000000000000000000000000000000000000000000007f0000000000000000000000000000000000000000000000000000000000000000421015801561175d57507f00000000000000000000000000000000000000000000000000000000000000004211155b801561176c575060045460ff16155b600460009054906101000a900460ff16600460019054906101000a900460ff16600680549050995099509950995099509950995099509950995090919293949596979899565b6117ba61184c565b6001600160a01b038116600081815260076020908152604091829020805460ff1916600190811790915591519182527ff93f9a76c1bf3444d22400a00cb9fe990e6abe9dbb333fda48859cfee864543d91016114a3565b61181961184c565b6001600160a01b03811661184357604051631e4fbdf760e01b81526000600482015260240161082d565b610efb81611941565b6000546001600160a01b03163314610e335760405163118cdaa760e01b815233600482015260240161082d565b60026001540361189c57604051633ee5aeb560e01b815260040160405180910390fd5b6002600155565b6040516001600160a01b0383811660248301526044820183905261144b91859182169063a9059cbb906064015b604051602081830303815290604052915060e01b6020820180516001600160e01b038381831617835250505050611991565b6040516001600160a01b03848116602483015283811660448301526064820183905261193b9186918216906323b872dd906084016118d0565b50505050565b600080546001600160a01b038381166001600160a01b0319831681178455604051919092169283917f8be0079c531659141344cd1fd0a4f28419497f9722a3daafe3b4186f6b6457e09190a35050565b600080602060008451602086016000885af1806119b4576040513d6000823e3d81fd5b50506000513d915081156119cc5780600114156119d9565b6001600160a01b0384163b155b1561193b57604051635274afe760e01b81526001600160a01b038516600482015260240161082d565b6020808252825182820181905260009190848201906040850190845b81811015611a435783516001600160a01b031683529284019291840191600101611a1e565b50909695505050505050565b600060208284031215611a6157600080fd5b5035919050565b600060208284031215611a7a57600080fd5b81356001600160a01b0381168114611a9157600080fd5b9392505050565b60008060208385031215611aab57600080fd5b823567ffffffffffffffff80821115611ac357600080fd5b818501915085601f830112611ad757600080fd5b813581811115611ae657600080fd5b8660208260051b8501011115611afb57600080fd5b60209290920196919550909350505050565b600060208284031215611b1f57600080fd5b81358015158114611a9157600080fd5b634e487b7160e01b600052601160045260246000fd5b8082028115828204841417611b5c57611b5c611b2f565b92915050565b80820180821115611b5c57611b5c611b2f565b600060208284031215611b8757600080fd5b5051919050565b634e487b7160e01b600052603260045260246000fd5b600060018201611bb657611bb6611b2f565b506001019056fea26469706673582212206946a1fb2aece11f15c868f44376167e334d705b28e7193e719a32c3f52f1d9664736f6c63430008140033",
  "linkReferences": {},
  "deployedLinkReferences": {}
}