{
  "_format": "hh-sol-artifact-1",
  "contractName": "VelocityToken",
  "sourceName": "contracts/VelocityToken.sol",
  "abi": [
    {
      "inputs": [
        {
          "internalType": "address",
          "name": "_treasury",
          "type": "address"
        }
      ],
      "stateMutability": "nonpayable",
      "type": "constructor"
    },
    {
      "inputs": [
        {
          "internalType": "address",
          "name": "spender",
          "type": "address"
        },
        {
          "internalType": "uint256",
          "name": "allowance",
          "type": "uint256"
        },
        {
          "internalType": "uint256",
          "name": "needed",
          "type": "uint256"
        }
      ],
      "name": "ERC20InsufficientAllowance",
      "type": "error"
    },
    {
      "inputs": [
        {
          "internalType": "address",
          "name": "sender",
          "type": "address"
        },
        {
          "internalType": "uint256",
          "name": "balance",
          "type": "uint256"
        },
        {
          "internalType": "uint256",
          "name": "needed",
          "type": "uint256"
        }
      ],
      "name": "ERC20InsufficientBalance",
      "type": "error"
    },
    {
      "inputs": [
        {
          "internalType": "address",
          "name": "approver",
          "type": "address"
        }
      ],
      "name": "ERC20InvalidApprover",
      "type": "error"
    },
    {
      "inputs": [
        {
          "internalType": "address",
          "name": "receiver",
          "type": "address"
        }
      ],
      "name": "ERC20InvalidReceiver",
      "type": "error"
    },
    {
      "inputs": [
        {
          "internalType": "address",
          "name": "sender",
          "type": "address"
        }
      ],
      "name": "ERC20InvalidSender",
      "type": "error"
    },
    {
      "inputs": [
        {
          "internalType": "address",
          "name": "spender",
          "type": "address"
        }
      ],
      "name": "ERC20InvalidSpender",
      "type": "error"
    },
    {
      "inputs": [
        {
          "internalType": "address",
          "name": "owner",
          "type": "address"
        }
      ],
      "name": "OwnableInvalidOwner",
      "type": "error"
    },
    {
      "inputs": [
        {
          "internalType": "address",
          "name": "account",
          "type": "address"
        }
      ],
      "name": "OwnableUnauthorizedAccount",
      "type": "error"
    },
    {
      "anonymous": false,
      "inputs": [
        {
          "indexed": true,
          "internalType": "address",
          "name": "owner",
          "type": "address"
        },
        {
          "indexed": true,
          "internalType": "address",
          "name": "spender",
          "type": "address"
        },
        {
          "indexed": false,
          "internalType": "uint256",
          "name": "value",
          "type": "uint256"
        }
      ],
      "name": "Approval",
      "type": "event"
    },
    {
      "anonymous": false,
      "inputs": [
        {
          "indexed": true,
          "internalType": "address",
          "name": "previousOwner",
          "type": "address"
        },
        {
          "indexed": true,
          "internalType": "address",
          "name": "newOwner",
          "type": "address"
        }
      ],
      "name": "OwnershipTransferred",
      "type": "event"
    },
    {
      "anonymous": false,
      "inputs": [
        {
          "indexed": true,
          "internalType": "address",
          "name": "from",
          "type": "address"
        },
        {
          "indexed": true,
          "internalType": "address",
          "name": "to",
          "type": "address"
        },
        {
          "indexed": false,
          "internalType": "uint256",
          "name": "value",
          "type": "uint256"
        }
      ],
      "name": "Transfer",
      "type": "event"
    },
    {
      "inputs": [
        {
          "internalType": "address",
          "name": "owner",
          "type": "address"
        },
        {
          "internalType": "address",
          "name": "spender",
          "type": "address"
        }
      ],
      "name": "allowance",
      "outputs": [
        {
          "internalType": "uint256",
          "name": "",
          "type": "uint256"
        }
      ],
      "stateMutability": "view",
      "type": "function"
    },
    {
      "inputs": [
        {
          "internalType": "address",
          "name": "spender",
          "type": "address"
        },
        {
          "internalType": "uint256",
          "name": "value",
          "type": "uint256"
        }
      ],
      "name": "approve",
      "outputs": [
        {
          "internalType": "bool",
          "name": "",
          "type": "bool"
        }
      ],
      "stateMutability": "nonpayable",
      "type": "function"
    },
    {
      "inputs": [
        {
          "internalType": "address",
          "name": "account",
          "type": "address"
        }
      ],
      "name": "balanceOf",
      "outputs": [
        {
          "internalType": "uint256",
          "name": "",
          "type": "uint256"
        }
      ],
      "stateMutability": "view",
      "type": "function"
    },
    {
      "inputs": [],
      "name": "burnFee",
      "outputs": [
        {
          "internalType": "uint256",
          "name": "",
          "type": "uint256"
        }
      ],
      "stateMutability": "view",
      "type": "function"
    },
    {
      "inputs": [],
      "name": "decimals",
      "outputs": [
        {
          "internalType": "uint8",
          "name": "",
          "type": "uint8"
        }
      ],
      "stateMutability": "view",
      "type": "function"
    },
    {
      "inputs": [
        {
          "internalType": "address",
          "name": "",
          "type": "address"
        }
      ],
      "name": "isFeeExempt",
      "outputs": [
        {
          "internalType": "bool",
          "name": "",
          "type": "bool"
        }
      ],
      "stateMutability": "view",
      "type": "function"
    },
    {
      "inputs": [],
      "name": "liquidityFee",
      "outputs": [
        {
          "internalType": "uint256",
          "name": "",
          "type": "uint256"
        }
      ],
      "stateMutability": "view",
      "type": "function"
    },
    {
      "inputs": [],
      "name": "maxWalletLimit",
      "outputs": [
        {
          "internalType": "uint256",
          "name": "",
          "type": "uint256"
        }
      ],
      "stateMutability": "view",
      "type": "function"
    },
    {
      "inputs": [],
      "name": "name",
      "outputs": [
        {
          "internalType": "string",
          "name": "",
          "type": "string"
        }
      ],
      "stateMutability": "view",
      "type": "function"
    },
    {
      "inputs": [],
      "name": "owner",
      "outputs": [
        {
          "internalType": "address",
          "name": "",
          "type": "address"
        }
      ],
      "stateMutability": "view",
      "type": "function"
    },
    {
      "inputs": [],
      "name": "renounceOwnership",
      "outputs": [],
      "stateMutability": "nonpayable",
      "type": "function"
    },
    {
      "inputs": [
        {
          "internalType": "address",
          "name": "wallet",
          "type": "address"
        },
        {
          "internalType": "bool",
          "name": "exempt",
          "type": "bool"
        }
      ],
      "name": "setFeeExempt",
      "outputs": [],
      "stateMutability": "nonpayable",
      "type": "function"
    },
    {
      "inputs": [
        {
          "internalType": "uint256",
          "name": "_burn",
          "type": "uint256"
        },
        {
          "internalType": "uint256",
          "name": "_liquidity",
          "type": "uint256"
        },
        {
          "internalType": "uint256",
          "name": "_treasury",
          "type": "uint256"
        }
      ],
      "name": "setFees",
      "outputs": [],
      "stateMutability": "nonpayable",
      "type": "function"
    },
    {
      "inputs": [
        {
          "internalType": "uint256",
          "name": "amount",
          "type": "uint256"
        }
      ],
      "name": "setMaxWallet",
      "outputs": [],
      "stateMutability": "nonpayable",
      "type": "function"
    },
    {
      "inputs": [],
      "name": "symbol",
      "outputs": [
        {
          "internalType": "string",
          "name": "",
          "type": "string"
        }
      ],
      "stateMutability": "view",
      "type": "function"
    },
    {
      "inputs": [],
      "name": "totalSupply",
      "outputs": [
        {
          "internalType": "uint256",
          "name": "",
          "type": "uint256"
        }
      ],
      "stateMutability": "view",
      "type": "function"
    },
    {
      "inputs": [
        {
          "internalType": "address",
          "name": "to",
          "type": "address"
        },
        {
          "internalType": "uint256",
          "name": "value",
          "type": "uint256"
        }
      ],
      "name": "transfer",
      "outputs": [
        {
          "internalType": "bool",
          "name": "",
          "type": "bool"
        }
      ],
      "stateMutability": "nonpayable",
      "type": "function"
    },
    {
      "inputs": [
        {
          "internalType": "address",
          "name": "from",
          "type": "address"
        },
        {
          "internalType": "address",
          "name": "to",
          "type": "address"
        },
        {
          "internalType": "uint256",
          "name": "value",
          "type": "uint256"
        }
      ],
      "name": "transferFrom",
      "outputs": [
        {
          "internalType": "bool",
          "name": "",
          "type": "bool"
        }
      ],
      "stateMutability": "nonpayable",
      "type": "function"
    },
    {
      "inputs": [
        {
          "internalType": "address",
          "name": "newOwner",
          "type": "address"
        }
      ],
      "name": "transferOwnership",
      "outputs": [],
      "stateMutability": "nonpayable",
      "type": "function"
    },
    {
      "inputs": [],
      "name": "treasuryFee",
      "outputs": [
        {
          "internalType": "uint256",
          "name": "",
          "type": "uint256"
        }
      ],
      "stateMutability": "view",
      "type": "function"
    },
    {
      "inputs": [],
      "name": "treasuryWallet",
      "outputs": [
        {
          "internalType": "address",
          "name": "",
          "type": "address"
        }
      ],
      "stateMutability": "view",
      "type": "function"
    }
  ],
  "bytecode": "0x60806040526002600655600260075560016008553480156200002057600080fd5b506040516200150338038062001503833981016040819052620000439162000523565b336040518060400160405280600e81526020016d2b32b637b1b4ba3c902a37b5b2b760911b8152506040518060400160405280600481526020016356454c4f60e01b8152508160039081620000999190620005f9565b506004620000a88282620005f9565b5050506001600160a01b038116620000db57604051631e4fbdf760e01b8152600060048201526024015b60405180910390fd5b620000e6816200017f565b50600a80546001600160a01b0319166001600160a01b03831617905560006200010d601290565b6200011a90600a620007da565b620001299062989680620007eb565b9050620001373382620001d1565b6200014460328262000805565b6009555050336000908152600b60205260408082208054600160ff199182168117909255308452919092208054909116909117905562000854565b600580546001600160a01b038381166001600160a01b0319831681179093556040519116919082907f8be0079c531659141344cd1fd0a4f28419497f9722a3daafe3b4186f6b6457e090600090a35050565b6001600160a01b038216620001fd5760405163ec442f0560e01b815260006004820152602401620000d2565b6200020b600083836200020f565b5050565b6001600160a01b038316158015906200023057506001600160a01b03821615155b15620003de576001600160a01b0383166000908152600b602052604090205460ff161580156200027957506001600160a01b0382166000908152600b602052604090205460ff16155b15620003de5760095481620002a3846001600160a01b031660009081526020819052604090205490565b620002af919062000828565b1115620002ff5760405162461bcd60e51b815260206004820152601560248201527f77616c6c6574206c696d697420657863656564656400000000000000000000006044820152606401620000d2565b6000606460065483620003139190620007eb565b6200031f919062000805565b90506000606460085484620003359190620007eb565b62000341919062000805565b90506000606460075485620003579190620007eb565b62000363919062000805565b905060008162000374848662000828565b62000380919062000828565b905060006200039082876200083e565b9050620003a088600087620003f0565b600a54620003ba9089906001600160a01b031686620003f0565b620003c7883085620003f0565b620003d4888883620003f0565b5050505050505050565b620003eb838383620003f0565b505050565b6001600160a01b0383166200041f57806002600082825462000413919062000828565b90915550620004939050565b6001600160a01b03831660009081526020819052604090205481811015620004745760405163391434e360e21b81526001600160a01b03851660048201526024810182905260448101839052606401620000d2565b6001600160a01b03841660009081526020819052604090209082900390555b6001600160a01b038216620004b157600280548290039055620004d0565b6001600160a01b03821660009081526020819052604090208054820190555b816001600160a01b0316836001600160a01b03167fddf252ad1be2c89b69c2b068fc378daa952ba7f163c4a11628f55a4df523b3ef836040516200051691815260200190565b60405180910390a3505050565b6000602082840312156200053657600080fd5b81516001600160a01b03811681146200054e57600080fd5b9392505050565b634e487b7160e01b600052604160045260246000fd5b600181811c908216806200058057607f821691505b602082108103620005a157634e487b7160e01b600052602260045260246000fd5b50919050565b601f821115620003eb57600081815260208120601f850160051c81016020861015620005d05750805b601f850160051c820191505b81811015620005f157828155600101620005dc565b505050505050565b81516001600160401b0381111562000615576200061562000555565b6200062d816200062684546200056b565b84620005a7565b602080601f8311600181146200066557600084156200064c5750858301515b600019600386901b1c1916600185901b178555620005f1565b600085815260208120601f198616915b82811015620006965788860151825594840194600190910190840162000675565b5085821015620006b55787850151600019600388901b60f8161c191681555b5050505050600190811b01905550565b634e487b7160e01b600052601160045260246000fd5b600181815b808511156200071c578160001904821115620007005762000700620006c5565b808516156200070e57918102915b93841c9390800290620006e0565b509250929050565b6000826200073557506001620007d4565b816200074457506000620007d4565b81600181146200075d5760028114620007685762000788565b6001915050620007d4565b60ff8411156200077c576200077c620006c5565b50506001821b620007d4565b5060208310610133831016604e8410600b8410161715620007ad575081810a620007d4565b620007b98383620006db565b8060001904821115620007d057620007d0620006c5565b0290505b92915050565b60006200054e60ff84168362000724565b8082028115828204841417620007d457620007d4620006c5565b6000826200082357634e487b7160e01b600052601260045260246000fd5b500490565b80820180821115620007d457620007d4620006c5565b81810381811115620007d457620007d4620006c5565b610c9f80620008646000396000f3fe608060405234801561001057600080fd5b50600436106101375760003560e01c8063715018a6116100b8578063a9059cbb1161007c578063a9059cbb14610283578063cc32d17614610296578063cec10c111461029f578063dd62ed3e146102b2578063f2fde38b146102eb578063fce589d8146102fe57600080fd5b8063715018a6146102465780638da5cb5b1461024e5780638ebfc7961461025f57806395d89b411461027257806398118cb41461027a57600080fd5b80633f4218e0116100ff5780633f4218e0146101b15780634626402b146101d45780635d0044ca146101ff57806366a88d961461021457806370a082311461021d57600080fd5b806306fdde031461013c578063095ea7b31461015a57806318160ddd1461017d57806323b872dd1461018f578063313ce567146101a2575b600080fd5b610144610307565b6040516101519190610a14565b60405180910390f35b61016d610168366004610a7e565b610399565b6040519015158152602001610151565b6002545b604051908152602001610151565b61016d61019d366004610aa8565b6103b3565b60405160128152602001610151565b61016d6101bf366004610ae4565b600b6020526000908152604090205460ff1681565b600a546101e7906001600160a01b031681565b6040516001600160a01b039091168152602001610151565b61021261020d366004610b06565b6103d7565b005b61018160095481565b61018161022b366004610ae4565b6001600160a01b031660009081526020819052604090205490565b6102126103e4565b6005546001600160a01b03166101e7565b61021261026d366004610b1f565b6103f8565b61014461042b565b61018160075481565b61016d610291366004610a7e565b61043a565b61018160085481565b6102126102ad366004610b5b565b610448565b6101816102c0366004610b87565b6001600160a01b03918216600090815260016020908152604080832093909416825291909152205490565b6102126102f9366004610ae4565b6104bd565b61018160065481565b60606003805461031690610bba565b80601f016020809104026020016040519081016040528092919081815260200182805461034290610bba565b801561038f5780601f106103645761010080835404028352916020019161038f565b820191906000526020600020905b81548152906001019060200180831161037257829003601f168201915b5050505050905090565b6000336103a78185856104fb565b60019150505b92915050565b6000336103c185828561050d565b6103cc85858561058c565b506001949350505050565b6103df6105eb565b600955565b6103ec6105eb565b6103f66000610618565b565b6104006105eb565b6001600160a01b03919091166000908152600b60205260409020805460ff1916911515919091179055565b60606004805461031690610bba565b6000336103a781858561058c565b6104506105eb565b600a8161045d8486610c0a565b6104679190610c0a565b11156104af5760405162461bcd60e51b81526020600482015260126024820152714d61782031302520746f74616c206665657360701b60448201526064015b60405180910390fd5b600692909255600755600855565b6104c56105eb565b6001600160a01b0381166104ef57604051631e4fbdf760e01b8152600060048201526024016104a6565b6104f881610618565b50565b610508838383600161066a565b505050565b6001600160a01b03838116600090815260016020908152604080832093861683529290522054600019811015610586578181101561057757604051637dc7a0d960e11b81526001600160a01b038416600482015260248101829052604481018390526064016104a6565b6105868484848403600061066a565b50505050565b6001600160a01b0383166105b657604051634b637e8f60e11b8152600060048201526024016104a6565b6001600160a01b0382166105e05760405163ec442f0560e01b8152600060048201526024016104a6565b61050883838361073f565b6005546001600160a01b031633146103f65760405163118cdaa760e01b81523360048201526024016104a6565b600580546001600160a01b038381166001600160a01b0319831681179093556040519116919082907f8be0079c531659141344cd1fd0a4f28419497f9722a3daafe3b4186f6b6457e090600090a35050565b6001600160a01b0384166106945760405163e602df0560e01b8152600060048201526024016104a6565b6001600160a01b0383166106be57604051634a1406b160e11b8152600060048201526024016104a6565b6001600160a01b038085166000908152600160209081526040808320938716835292905220829055801561058657826001600160a01b0316846001600160a01b03167f8c5be1e5ebec7d5bd14f71427d1e84f3dd0314c0f7b2291e5b200ac8c7c3b9258460405161073191815260200190565b60405180910390a350505050565b6001600160a01b0383161580159061075f57506001600160a01b03821615155b156108e3576001600160a01b0383166000908152600b602052604090205460ff161580156107a657506001600160a01b0382166000908152600b602052604090205460ff16155b156108e357600954816107ce846001600160a01b031660009081526020819052604090205490565b6107d89190610c0a565b111561081e5760405162461bcd60e51b81526020600482015260156024820152741dd85b1b195d081b1a5b5a5d08195e18d959591959605a1b60448201526064016104a6565b60006064600654836108309190610c1d565b61083a9190610c34565b9050600060646008548461084e9190610c1d565b6108589190610c34565b9050600060646007548561086c9190610c1d565b6108769190610c34565b90506000816108858486610c0a565b61088f9190610c0a565b9050600061089d8287610c56565b90506108ab886000876108ea565b600a546108c39089906001600160a01b0316866108ea565b6108ce8830856108ea565b6108d98888836108ea565b5050505050505050565b6105088383835b6001600160a01b03831661091557806002600082825461090a9190610c0a565b909155506109879050565b6001600160a01b038316600090815260208190526040902054818110156109685760405163391434e360e21b81526001600160a01b038516600482015260248101829052604481018390526064016104a6565b6001600160a01b03841660009081526020819052604090209082900390555b6001600160a01b0382166109a3576002805482900390556109c2565b6001600160a01b03821660009081526020819052604090208054820190555b816001600160a01b0316836001600160a01b03167fddf252ad1be2c89b69c2b068fc378daa952ba7f163c4a11628f55a4df523b3ef83604051610a0791815260200190565b60405180910390a3505050565b600060208083528351808285015260005b81811015610a4157858101830151858201604001528201610a25565b506000604082860101526040601f19601f8301168501019250505092915050565b80356001600160a01b0381168114610a7957600080fd5b919050565b60008060408385031215610a9157600080fd5b610a9a83610a62565b946020939093013593505050565b600080600060608486031215610abd57600080fd5b610ac684610a62565b9250610ad460208501610a62565b9150604084013590509250925092565b600060208284031215610af657600080fd5b610aff82610a62565b9392505050565b600060208284031215610b1857600080fd5b5035919050565b60008060408385031215610b3257600080fd5b610b3b83610a62565b915060208301358015158114610b5057600080fd5b809150509250929050565b600080600060608486031215610b7057600080fd5b505081359360208301359350604090920135919050565b60008060408385031215610b9a57600080fd5b610ba383610a62565b9150610bb160208401610a62565b90509250929050565b600181811c90821680610bce57607f821691505b602082108103610bee57634e487b7160e01b600052602260045260246000fd5b50919050565b634e487b7160e01b600052601160045260246000fd5b808201808211156103ad576103ad610bf4565b80820281158282048414176103ad576103ad610bf4565b600082610c5157634e487b7160e01b600052601260045260246000fd5b500490565b818103818111156103ad576103ad610bf456fea2646970667358221220ff38a379f581f64f36438bdf5b33904c994c5a2b07fc74b3526f90741ebfef2f64736f6c63430008140033",
  "linkReferences": {},
  "deployedLinkReferences": {}
}